{
  "contractName": "TodoList",
  "abi": [
    {
      "constant": true,
      "inputs": [],
      "name": "taskCount",
      "outputs": [
        {
          "name": "",
          "type": "uint256"
        }
      ],
      "payable": false,
      "stateMutability": "view",
      "type": "function",
      "signature": "0xb6cb58a5"
    },
    {
      "inputs": [],
      "payable": false,
      "stateMutability": "nonpayable",
      "type": "constructor",
      "signature": "constructor"
    },
    {
      "constant": false,
      "inputs": [
        {
          "name": "_content",
          "type": "string"
        }
      ],
      "name": "createNewTask",
      "outputs": [],
      "payable": false,
      "stateMutability": "nonpayable",
      "type": "function",
      "signature": "0x85edf874"
    }
  ],
  "bytecode": "0x60806040526000805534801561001457600080fd5b506100626040805190810160405280600d81526020017f4d79206669727374205461736b00000000000000000000000000000000000000815250610067640100000000026401000000009004565b61019f565b600080815480929190600101919050555060606040519081016040528060005481526020018281526020016000151581525060016000805481526020019081526020016000206000820151816000015560208201518160010190805190602001906100d39291906100fa565b5060408201518160020160006101000a81548160ff02191690831515021790555090505050565b828054600181600116156101000203166002900490600052602060002090601f016020900481019282601f1061013b57805160ff1916838001178555610169565b82800160010185558215610169579182015b8281111561016857825182559160200191906001019061014d565b5b509050610176919061017a565b5090565b61019c91905b80821115610198576000816000905550600101610180565b5090565b90565b6102ae806101ae6000396000f3fe60806040526004361061004c576000357c0100000000000000000000000000000000000000000000000000000000900463ffffffff16806385edf87414610051578063b6cb58a514610119575b600080fd5b34801561005d57600080fd5b506101176004803603602081101561007457600080fd5b810190808035906020019064010000000081111561009157600080fd5b8201836020820111156100a357600080fd5b803590602001918460018302840111640100000000831117156100c557600080fd5b91908080601f016020809104026020016040519081016040528093929190818152602001838380828437600081840152601f19601f820116905080830192505050505050509192919290505050610144565b005b34801561012557600080fd5b5061012e6101d7565b6040518082815260200191505060405180910390f35b600080815480929190600101919050555060606040519081016040528060005481526020018281526020016000151581525060016000805481526020019081526020016000206000820151816000015560208201518160010190805190602001906101b09291906101dd565b5060408201518160020160006101000a81548160ff02191690831515021790555090505050565b60005481565b828054600181600116156101000203166002900490600052602060002090601f016020900481019282601f1061021e57805160ff191683800117855561024c565b8280016001018555821561024c579182015b8281111561024b578251825591602001919060010190610230565b5b509050610259919061025d565b5090565b61027f91905b8082111561027b576000816000905550600101610263565b5090565b9056fea165627a7a723058200e1f8a395bf0c4f485b310c17d587aff046748f3242acf1fe217210842219ec20029",
  "source": "// SPDX-License-Identifier: UNLICESED\npragma solidity ^0.5.0;\n\ncontract TodoList{\n\tuint public taskCount = 0;\n\tstruct Task {\n\t\tuint id;\n\t\tstring content;\n\t\tbool completed;\t\t\n\t}\n\tmapping(uint=>Task) tasks;\n\t\n\tfunction createNewTask(string memory _content)public{\n\t\ttaskCount ++;\n\t\ttasks[taskCount] = Task(taskCount,_content,false);\n\t}\n\n\tconstructor() public{\n\t\tcreateNewTask(\"My first Task\");\n\t}\n\t\n}",
  "sourcePath": "/home/metehan/Desktop/eth-todo-list/contracts/TodoList.sol",
  "compiler": {
    "name": "solc",
    "version": "0.5.0+commit.1d4f565a.Emscripten.clang"
  },
  "schemaVersion": "3.0.1",
  "updatedAt": "2022-02-27T11:42:40.898Z",
  "devdoc": {
    "methods": {}
  },
  "userdoc": {
    "methods": {}
  }
}